:020000040801F1
:10200000C80A00201D6F01083982030839820308BD
:10201000F5A00308398203083982030839820308CE
:102020003982030839820308398203083982030898
:1020300039820308386F040897A10308398203081E
:102040003982030839820308398203083982030878
:102050003982030839820308398203083982030868
:102060003982030839820308398203083982030858
:102070003982030839820308398203083982030848
:102080003982030839820308398203083982030838
:102090003982030839820308F9490108914A010885
:1020A000ED4A01083982030839820308398203089E
:1020B0003982030839820308894C010839820308F0
:1020C00039820308398203083982030839820308F8
:1020D0003982030839820308398203084D720108E6
:1020E0002D720108398203083982030839820308F6
:1020F0003982030809F20208A5FC0208311C040811
:102100002D1C04084DF40208471C0408351C040863
:1021100075FC0208391C0408E5FC020851FD0208A0
:102120003982030839820308398203083982030897
:10213000C39F0308398203083982030839820308E0
:102140003982030839820308398203083982030877
:102150003982030839820308398203083982030867
:102160003982030839820308398203083982030857
:102170003982030839820308398203083982030847
:10218000398203083982030839820308595A04083E
:10219000B9D70208398203081B1C0408211C040853
:1021A0003982030839820308398203083982030817
:0421B0003982030865
:1021B400F0B5114A114C124E00F00105E3695F07B6
:1021C40013D40DB9334213D103EA00078F4207D168
:1021D4000B4A1A40002A0CBF00206FF00100F0BD2A
:1021E400013AEBD16FF00200F9E74FF0FF30F6E768
:1021F4006FF00100F3E700BF8096980000000350E1
:10220400020001000B4B70B5D96911F480310DD176
:1022140001244FF48072084E084DF46020462C646B
:102224001A61FFF7C5FF3464EC6070BD6FF0010004
:10223400FBE700BF000003500010035000200350D0
:102244004FF4803238B50E4B0E4C9A66E56941F670
:10225400713315400122E3630B4B0021DA60022342
:10226400606121202361FFF7A3FF10B92120FFF74C
:102274009FFF0122054BDA600DB10023E36338BDF3
:102284000090005000000350001003500020035041
:1022940070B5134C6061E3695B071ED40E4656F8B3
:1022A400043B8D18A361AE420BD1042300212120ED
:1022B4002361FFF77DFF58B9BDE870402120FFF787
:1022C40077BF08210846FFF773FF10B10423236189
:1022D40070BD56F8043BA361E5E74FF0FF30F7E724
:1022E400000003502DE9F84315464FF48032184B93
:1022F40089469A6603F51C33DF690646174041F6A2
:102304007132DA63012203F58053DFF84C80DA601E
:1023140055B9284601220F4BDA601FB10022A3F5FC
:102324000053DA63BDE8F88306F5005404EA0804B0
:10233400A41BAC4228BF2C46494622463046FFF730
:10234400A7FF0028E6D12644A1442D1BE0E700BFE7
:10235400009000500020035000E0FFFF0000000048
:102364000000000000000000000000000000000069
:10238000013800D0FCE7704700232DE9F041464FAB
:102390008AB005933B7805460E46ABB906AA90462F
:1023A000424B03F1100C144618685968083303C4F3
:1023B00063452246F7D140462FF08BFE81B240465E
:1023C00001F0B0F901233B70072E65D9072228469A
:1023D00037492FF00BFE044600285DD1EB79A3F1BD
:1023E0003006052E11D9334933482FF04FFE3248BD
:1023F0002FF06FFE0146304825F016FE4FF6FF70B5
:102400000AB0BDE8F04125F014BE323B032B8CBF6F
:1024100001272A4A4FF0020098BFD75C394601F0E5
:10242000E7F8002838D04FF6FF7025F002FE0025AF
:10243000DFF89080B8F81C30AB4221DC94FBF3F459
:1024400007EE904AF8EEE77A17EE900A1DF05CFE70
:1024500013A3D3E900231DF0AFFE00224FF07A53FF
:102460001DF0AAFE1EF0E2F81DF04EFE3346CDE947
:102470000201134A642100940F481EF055FFB6E78D
:10248000384605A901F08EFA30B1059B013543F3BA
:10249000170305931C44CDE70AB0BDE8F08100BFE7
:1024A0006666666666660A40EF240020D45C04080F
:1024B0008E5C0408965C0408AC270020AE5D04081E
:1024C000AF5C0408BC2B00202DE9F04F2DED028BF2
:1024D000002485B005280546039460D8344B13F8D2
:1024E00000A00220514601F083F8002857D02EA703
:1024F000D7E900674FF6FF7025F09BFD9FED2D8A11
:102500004FF000084FF07A59DFF8B4B0BBF81C3038
:10251000A34223D807EE903AB8EEE70A88EE000A05
:1025200020F07AF910EE100A1DF0EEFD2B46CDE9F1
:102530000001214A642121481EF0F6FE1F482FF0B9
:10254000C8FD01461D4825F06FFD4FF6FF7005B030
:10255000BDEC028BBDE8F04F25F06BBD504603A9E2
:1025600001F020FA0028D1D00398013440F317007D
:1025700007EE900AF8EEE77A17EE900A1DF0C4FD18
:1025800032463B461DF018FE42464B461DF014FEF7
:102590001EF04CF807EE900A07EEA78AB6E705B0E2
:1025A000BDEC028BBDE8F08F6666666666660A4023
:1025B000A85D040800000000E45C0408AC270020CB
:1025C000BC2B002000000000002370B5424C0546E3
:1025D0008AB0E36318B10088236012F025F812F086
:1025E000CDF93E482EF04BFD3D4E3E4B304633601C
:1025F0003D4B73602BF051FD0021304616F022FD5B
:1026000033A3D3E90023A062C4E906232BF050FDD5
:10261000D4E9062319431043C4E90601CDE90001BA
:102620004FF0FF334FF0FF32A06A2EF0CFFD0222B1
:102630004FF0FF31A06A2EF0CEFD012011F078FDA1
:102640004FF4007300222949A06A2EF0C6FEB0F5AF
:10265000007F39D100239422079309933C23CDE9CD
:1026600003320593962306935023A06A03A9089387
:1026700016F002FE35B3287C12F092F90546F0B947
:10268000A06A2EF09FFF12F019FA11F033FD20B16D
:102690004FF4807000210EF08DFC11F03BFD20B155
:1026A0004FF4006000210EF085FC2BF0CCFD0120E2
:1026B0002EF0B9FC0E4A0F49A06A2BF0ECFC28461C
:1026C0000AB070BDFF20D7E70725F8E7AFF3008019
:1026D0000DD5015520000000380B0020690345ECA2
:1026E000181C0020693F0208281C0020181A00202E
:1026F0003FE003087FE003082DE9F04FC76997B07A
:102700008346209E08910C92129355EC104B8DED50
:10271000000B7FB910201EF02BFF0246CBF81C00E7
:1027200020B9A74BEF21A7481EF004FFC0E90177AD
:102730000760C760DBF81C30196859B15A6801237B
:10274000584693404A608B601EF05AFFDBF81C30FD
:1027500000221A602B1EB7BF23F000430023012282
:102760000193A8BF3360019F974BB8BF3260BB4352
:1027700019D142F20F73129A1360C7F31303234364
:1027800000F0DB85219B53B9904B21E0904B0393E4
:102790000833219A1360039817B0BDE8F08F8B4B74
:1027A00003930333F5E79DED007B0022002351ECFA
:1027B000170B8DED0A7B25F081FA804650B101237D
:1027C000129A1360219B13B1824B219A1360824BA2
:1027D0000393E0E7C7F30A5614AA15A958469DEDDE
:1027E0000A0B1FF095F90290002E76D00B9BA6F2F3
:1027F000FF36CDF84C80C3F3130343F07F53DDE97C
:102800000A0143F4401319460022744B1DF01CFBCF
:1028100065A3D3E900231DF0CFFC65A3D3E9002312
:102820001DF014FB04460D4630461DF05BFC62A310
:10283000D3E900231DF0C0FC02460B462046294682
:102840001DF004FB04460D461DF0C8FE002207469D
:1028500000232046294625F03BFA40B138461DF0BA
:1028600041FC22462B4625F029FA00B9013F162FDC
:1028700052D85B4B03EBC703DDE90A01D3E9002320
:1028800025F026FA002849D0013F00231193149B1C
:102890009B1B5A1E4CBFC3F101030023079245BF87
:1028A0000693002306930793002F39DB079B1097AD
:1028B0003B44079300230993089B092B66D8052BFB
:1028C000C5BF043B002401240893089B023B032B53
:1028D00067D8DFE803F02D3A3859DDE914631E4468
:1028E00006F23243202BC9BFC3F14003C3F12003DA
:1028F0009F4006F21243D8BF04FA03F006F1FF36F8
:10290000C4BF24FA03F347EA03001DF0DBFB0122F6
:10291000A1F1F873139276E70123B7E71190B6E7B8
:10292000069BDB1B06937B42099300231093C3E7AE
:1029300000230D930C9B002B56DC012399461A466D
:1029400004930C920CE00123F3E700230D930C9BFE
:10295000FB1803F1010904934B46012BB8BF012377
:10296000DBF81C000021042202F114059D423FD92E
:10297000416058461EF004FE039000283BD1194BDD
:10298000024640F2AF11CEE60123DFE70124002327
:102990000D9408934FF0FF330022994604931223BD
:1029A000CFE701230D93F5E761436F63A787D23F1C
:1029B000B3C8608B288AC63FFB799F501344D33F2E
:1029C000F3C50408AEC604080000F07FAAC60408D8
:1029D000A1C60408A85F0408A75F04080000F83F28
:1029E000A8C7040807C704080C9B99460493B7E7D7
:1029F00001315200B8E7DBF81C30B9F10E0F039A31
:102A00001A606FD8002C6DD0002F36DD07F00F0252
:102A1000A04BF8054FEA271403EBC20393ED007BAC
:102A20008DED0E7B17D59C4B04F00F044FF003087F
:102A3000D3E90823DDE90A011DF0E8FCCDE9000136
:102A4000954D5CB9DDE90E23DDE900011DF0DEFCEA
:102A5000CDE900012BE04FF00208F1E7E10709D5CD
:102A600008F10108DDE90E01D5E900231DF0A4FB02
:102A7000CDE90E0164100835E3E700F007817C42E0
:102A8000844B854D4FF0020804F00F02241103EB34
:102A9000C203DDE90A01D3E900231DF08DFB002309
:102AA000CDE90001002C40F0E580002BD0D1119B36
:102AB000DDE90045002B00F04C810022774B2046D9
:102AC000294625F005F9002800F04381B9F1000FEF
:102AD00000F03F81049B002B00F3E480DDE90A3421
:102AE000CDE90034159B002B02DB0E2F40F3428210
:102AF0000D9A002A40F06782099C0025DDF81880B5
:102B0000B8F1000F0DD0079B002B0ADD4345069A54
:102B1000A8BF4346D21AA8EB03080692079AD31A15
:102B20000793099B0BB30D9B002B00F0A682002C92
:102B300000F0A1822946224658461EF08BFE029ADA
:102B40000146054658461EF0DBFD029906465846EA
:102B50001EF056FD099B1B1B099300F09182099AF8
:102B6000314658461EF076FE0290012158461EF06E
:102B7000B1FD109B0446002B00F084821A460146EA
:102B800058461EF067FE089B0446012B03DC009BA1
:102B9000002B00F07C820026236904EB8303186974
:102BA0002FF02CFBC0F120001096079B184410F06A
:102BB0001F0000F09182C0F12003042B40F38182BA
:102BC000C0F11C00069B034480440693079B03440A
:102BD0000793069B002B05DD1A46029958461EF006
:102BE00093FE0290079B002B05DD21461A465846AE
:102BF0001EF08AFE0446119B002B00F076822146CF
:102C000002982FF04AFB002880F26F8200230A22EC
:102C1000029958461EF016FD0D9B7E1E0290002B59
:102C200000F05C82002329460A2258461EF00AFD65
:102C3000049B0546002B03DC089B022B00F35E82FD
:102C4000B8F1000F05DD2946424658461EF05CFEED
:102C50000546109B002B00F0D082696858461EF094
:102C60008FFC0746002840F07F820D4B024640F261
:102C7000EF2158E5E20706D508F10108D5E9002360
:102C80001DF09AFA0123641008350BE74FF0020893
:102C90000DE700BFA8C7040880C704080000F03F84
:102CA00007C7040820460022AC4B29461DF084FAD1
:102CB0007E1E08F10108049CCDE9000140461DF08C
:102CC00011FADDE900231DF077FAA54B00221DF073
:102CD000BDF8A1F15073CDE90E010F93002C3BD14B
:102CE0000022A04BDDE900011DF0AEF802460B46C4
:102CF000CDE90023DDE90E2325F008F8002840F097
:102D00005781DDE90E2101F10043DDE9000124F0E6
:102D1000DFFF00283FF4E2AE002425460C9BDDF8DF
:102D20000CA0DE434FF00008214658461EF068FC18
:102D3000002D00F0A980B8F1000F05D0A84503D000
:102D4000414658461EF05CFC294658461EF058FC89
:102D50009AE03E464C46B1E7834B03EBC40353E98C
:102D60000201039B1C440D9B002B4AD002460B46DC
:102D700000207E491DF04AFBDDE90E231DF064F8BA
:102D8000DDF80CA0CDE90E01DDE900011DF026FC07
:102D900005461DF0A7F9024630350B46DDE9000176
:102DA0001DF052F80AF8015B02460B46CDE900011E
:102DB000DDE90E0124F0AAFF002865D100206C494E
:102DC000DDE900231DF040F802460B46DDE90E0167
:102DD00024F09CFF002840F00D81A24500F0EA801D
:102DE00000225E4BDDE90E011DF0E6F900225B4B8F
:102DF000CDE90E01DDE900011DF0DEF9CDE90001AC
:102E0000C2E7DDE90E231DF0D7F9A046DDF80CA0DE
:102E1000CDE90E01DDE900011DF0E0FB05461DF0E6
:102E200061F9024630350B46DDE900011DF00CF872
:102E30000AF8015B02460B46A245CDE900234FF09C
:102E4000000223D1494BDDE90E011CF0FFFF0246D1
:102E50000B46DDE9000124F059FF002840F0CA804C
:102E600000204249DDE90E231CF0EEFF02460B462E
:102E7000DDE9000124F02CFF70B1C24608F1FF38F3
:102E80001AF8013C302BF8D0374655E0334B1DF093
:102E900093F9CDE90001BDE7DDE90A34CDE900345D
:102EA000159B002BFFF628AE0E2F3FF725AE2E4BBD
:102EB00003EBC70393ED007B0C9B002B8DED047B94
:102EC00002DAB9F1000F64D0DDF80CA0DDE90045AD
:102ED000DDE90423204629461DF098FA1DF07EFB0B
:102EE00006461DF0FFF8DDE904231DF065F90246F2
:102EF000204606F130040B4629461CF0A5FF0AF8CF
:102F0000014B039C02460B46AAEB0404A14540F08A
:102F100082801CF09BFF04460D46DDE9042324F06B
:102F2000F5FE002865D120462946DDE9042324F07A
:102F3000C5FE08B1F3075CD4029958461EF060FB49
:102F4000002301378AF80030129B1F60219B002B61
:102F50003FF421ACC3F800A01DE400BF00002440F2
:102F600000001C4000001440A8C704080000E03F17
:102F70000000F03FA24B03EBC70393ED007B0C9BDB
:102F8000002B8DED047B9FDAB9F1000F9CDC7FF400
:102F9000C3AE00229B4BDDE904011DF00DF9DDE914
:102FA000002324F0A9FE044600287FF4B5AE3E4677
:102FB0002546B4E0DDE90A34CDE90034159B002B49
:102FC00001DB0E2FD6DD089A012A36DC139A82B374
:102FD00003F23343099CDDF81880069A0121584614
:102FE0001A440692079A1A4407921EF073FB05468C
:102FF00086E53E4653469A4613F8012D392A06D1F6
:10300000039A9A42F7D13022039901360A701A784E
:1030100001321A7038E700227B4B1DF0CDF80022F8
:10302000002304460D4624F049FE00283FF450AF2B
:1030300082E7149BC3F13603CCE709F1FF34099B07
:10304000A34208DBB9F1000FA3EB04040EDBDDF8AB
:1030500018804B46C1E7099B109AE31A0994DDF8E2
:10306000188000241A444B461092B6E7069BA3EB47
:1030700009080023B1E7029E71E5099A029970E5FB
:10308000029672E5089B012B17DC009BABB9019BF4
:10309000C3F313039BB9019B23F00046360D36059D
:1030A00036B1069B012601330693079B0133079334
:1030B000109B002B7FF470AD1096012075E5002663
:1030C000F6E73FF486AD1C33069A1A4498440692FC
:1030D000079A1A4407927CE50346F4E7049B002B09
:1030E0002BDC089B022B09DC27E0B9F1000F1DDC6B
:1030F000089B022B1ADD3E46CDF81090049B002B56
:103100007FF40CAE2146052258461EF09BFA01467C
:10311000044602982FF0C1F800287FF7FFADDDF8D4
:103120000CA0312301360AF8013BFBE50D9B3E461E
:10313000CDF81090002B7FF483AD039F21460298B9
:103140002EF0CFFF039B00F13009049A07F8019B92
:10315000FB1A9A4240F3CB8000230A220299584678
:103160001EF070FA0290E9E72A6905F10C010C30B3
:10317000023292002EF0A0FF0122394658461EF07E
:10318000C3FB039BA846054603F1010ADDE90323BF
:1031900013440793009B03F0010309930AF1FF33E3
:1031A0002146029804932EF09CFF4146069000F1C0
:1031B000300902982FF071F82A46214607465846F2
:1031C0001EF00EFCC268014602B358461EF018FA03
:1031D000002F3ADA0122029958461EF095FB21464B
:1031E00002902FF05AF8002803DC29D119F0010FC2
:1031F00026D0B9F1390F1DD132E02846C1E700BF12
:10320000A8C7040800001440000024400A90029857
:103210002FF043F80A990C9058461EF0F1F90C9AD9
:103220005ABB089B53B9099B43B9B9F1390F17D061
:10323000002F05DD069B03F1310901E0002F2ADA9A
:10324000DDF810A00AF8019B6EE5089B3B4304D112
:10325000009B03F00103002BBCD0B9F1390F36D12C
:10326000049F392307F8013BBA46013F1AF8013C95
:10327000392B5AD001333B7056E5002F06DB089BF3
:103280003B4306D1009B03F0010313B9002AA1DCE4
:10329000D6E7002AE1DC079B57460AF8019C534514
:1032A0002ED000230A22029958461EF0CBF9A845D9
:1032B00002904FF000034FF00A02414658460BD1EE
:1032C0001EF0C0F9804605460AF1010A66E7DDF8FE
:1032D00010A009F10109B5E71EF0B4F929468046AE
:1032E00000230A2258461EF0ADF90546ECE7049B80
:1032F0004FF00008002BCCBF1F460127039B1F4443
:103300000122029958461EF0FFFA214602902EF043
:10331000C4FF0028A8DC02D119F0010FA4D1BA46DD
:1033200017F8013D302BFAD0FEE4039BBB429BD142
:103330003123039A01361370F6E4219B002B7FF4AE
:1033400025AA014BFFF744BAA1C604080348044B61
:10335000834202D0034B03B1184770478C320020E0
:103360008C32002000000000064B0749C91A891062
:1033700048BF0131491003D0044B0BB10148184735
:10338000704700BF8C3200208C320020000000000B
:1033900010B5064C237843B9FFF7D8FF044B13B19F
:1033A0000448AFF300800123237010BDEE240020F9
:1033B00000000000E4CA040808B5054B1BB105492C
:1033C0000548AFF30080BDE80840FFF7CDBF00BF60
:1033D00000000000B80D0020E4CA0408A3F5803AFC
:1033E000704700BF174B002B08BF134B9D46FFF7DC
:1033F000F5FF00218B460F461348144A121A2EF08F
:10340000DEFD0E4B002B00D098470D4B002B00D05B
:1034100098470020002104000D000D48002802D02C
:103420000C48AFF300801EF061F82000290001F085
:10343000CBFC1DF0DBFA00BF00000800000000001C
:1034400000000000C80A0020C80A0020202900202F
:103450000000000000000000F0B50024354A85B0EF
:1034600092F82C2002940746CDE90044CDF80B4099
:103470007AB9314931482EF009FE30482EF029FE44
:1034800001462E4824F0D0FD4FF6FF7024F0D1FD08
:1034900021E00E291FD84E1EE5B2B5421DDB05F115
:1034A00010030DEB03050023684605F8103C2EF0D1
:1034B000E0FB0446224B5860242005F037FED4B9C7
:1034C00020491E482EF0E2FD1C482EF002FE014667
:1034D0001A4824F0A9FD05B0F0BD785D24F02DFE5A
:1034E000013408B91849C5E77A5D05F110036B444A
:1034F00003F8102CD0E7B0FBF4F14D1EB5F5803F7A
:1035000006D3030C6421114A0C481DF00DFFDBE7C4
:10351000012302200E4AD940D360D060106BD561E0
:10352000106B91660548D36064212346094A1DF05B
:10353000FBFEA2E7842B0020C85A0408AC27002019
:10354000602B0020F75A0408E05A0408195B0408AD
:1035500000800450425B04082DE9F0410546002636
:103560000E4FDFF840800E4CAE4205D1BDE8F04171
:103570004FF6FF7024F05DBD18F8011BA3695A06D1
:10358000FCD5204625F086FDA3691B06FCD5204608
:1035900025F07AFD013607F8010BE5E7F02400205D
:1035A00000000A5022250020002138B50D4B40F0C4
:1035B0002000187032220C4859702EF000FD0320B4
:1035C000FFF7CAFF094B084D1C7D0CB16B780BB19E
:1035D000012038BD4FF6FF70013C24F02AFDE4B213
:1035E000F3E700BF22250020F0240020602B0020FC
:1035F0000A46002138B50D4B40F0400018709A7013
:103600000B48322259702EF0DAFC0320FFF7A4FF9A
:10361000084B074D1C7D0CB12B780BB1012038BD38
:103620003220013C0AF02CFDE4B2F4E72225002010
:10363000F0240020602B00200122002138B5174B18
:1036400017481A70322259702EF0B9FC0320FFF788
:1036500083FF144B124D1C7DD4B12B788BB16421A8
:10366000114A12481DF060FE10482EF032FD01464E
:103670000E4824F0D9FCBDE838404FF6FF7024F026
:10368000D8BC4FF4FA70013C0AF0FAFCE4B2E3E76C
:10369000074906482EF0FAFCE6E700BF2225002085
:1036A000F0240020602B0020615B0408AC27002080
:1036B000CF5B040838B540F6FF74084D686F10F40E
:1036C000007007D0013C0A20A4B20AF0D9FC002CFB
:1036D000F4D1012080F0010038BD00BF00C00350CC
:1036E000122238B504460C4B00211A700B483222C6
:1036F0002EF065FC601CC0B2FFF72EFF084B074D93
:103700001C7D0CB12B780BB1012038BD3220013C5F
:103710000AF0B6FCE4B2F4E722250020F0240020F1
:10372000602B00202DE9F14F06460F460025DFF8FB
:10373000448058F835A008EBC50B50462EF0C9FC64
:103740005FFA80F904464A46514630462EF04EFC58
:1037500050B9DBF8043053B1391BC9B206EB09008C
:1037600001B0BDE8F04F184701350C2DE1D101B093
:10377000BDE8F08F002B002030B5012189B0292051
:1037800005F0BEFC002304220E21032007F0CCF834
:10379000002301220D21032007F0C6F80023042294
:1037A0000F21032007F0C0F8124B134A134DC3F842
:1037B0003828A2F58032C3F8302802F50032C3F869
:1037C00034281C2201ACC3F820280FCD0FC495E883
:1037D000070001238DF812304FF4007384E80700CE
:1037E000074801A9ADF8143025F00CFC002009B001
:1037F00030BD00BF00C0035003000E00645E04082B
:1038000000000A50012370B518460222092107F072
:103810008BF801250922114B02211D705A700320DB
:103820002B46042207F080F803220D4B04261A7061
:1038300002220C4C5A7004F50053C3F8D0600A20E1
:1038400004F580540AF01CFC0A20C4F8D0600AF089
:1038500017FC054B002083F82D5070BD5D32002011
:103860005632002000C00350842B002070B51B4C42
:1038700094F82C30012B14D194F82D50012D0ED139
:103880000426174B0A20C3F8D0600AF0F9FB154B49
:103890000A20C3F8D0600AF0F3FB84F82D501249D7
:1038A00006E0002BFBD1FFF767FF013010D10F4975
:1038B0000F482EF0EBFB0E482EF00BFC01460C4897
:1038C00024F0B2FBBDE870404FF6FF7024F0B1BBAE
:1038D000012384F82C30FFF795FFE0E7842B0020CC
:1038E00000E0035000D003507E5B0408CF5B040867
:1038F000AC270020124B13B532221870002111485A
:103900002EF05DFB0120FFF727FE0F4B0D4C1B7DBA
:103910008DF807309DF807300BB1237823B10020D4
:103920009DF8073002B010BD4FF4FA700AF0A8FB02
:103930009DF80730013BDBB28DF80730EAE700BFA6
:1039400022250020F0240020602B002010B5114B10
:1039500093F82C300BB910490BE00620FFF7CAFF93
:103960000446642200210D482EF029FB002CF2D1E0
:103970000B490A482EF08AFB08482EF0AAFB0146A4
:10398000064824F051FBBDE810404FF6FF7024F0CC
:1039900050BB00BF842B0020CF5B0408AC27002065
:1039A000985B040838B50D4601460220FFF720FE5B
:1039B00010B90024204638BD0820FFF79BFF0028DF
:1039C000F7D1FFF777FE20B900240A20FFF792FF16
:1039D000F0E70320FFF784FE04460028F4D0054AF0
:1039E000937851781B02D27843EA014313432B604A
:1039F000EBE700BFF0240020F7B564220021214846
:103A00002EF0DDFA204B93F82C308BB91F491D485E
:103A10002EF03CFB1B482EF05CFB0146194824F0BD
:103A200003FB4FF6FF7003B0BDE8F04024F001BB8C
:103A300032250024154F134E2C2001A9FFF7B2FFA9
:103A400080B1019B1C44013D15F0FF05F4D13223E8
:103A5000B4FBF3F30E4A642113600A480D4A1DF0CB
:103A600063FCD7E7394630462EF010FB30462EF087
:103A700030FB0146304624F0D7FA4FF6FF7024F0B1
:103A8000D8FAE0E7AC270020842B0020CF5B0408A5
:103A9000D00D0020B45B04081FB5642200211D482E
:103AA0002EF08DFA1C4B93F82C3023B91B49194882
:103AB0002EF0ECFA1DE02C2003A9FFF773FF30B3C2
:103AC000039C20461CF00EFB0022154B1CF074FBDF
:103AD00000224FF07A531CF06FFB1CF0A7FD1CF086
:103AE00013FB2346CDE900010E4A642109481DF06D
:103AF0001BFC08482EF0EDFA0146064824F094FA23
:103B00004FF6FF7004B0BDE8104024F092BA0649A9
:103B1000CDE700BFAC270020842B0020D35B040836
:103B200000000440E45B0408125C04081FB5642232
:103B300000211D482EF043FA1C4B93F82C3023B97A
:103B40001B4919482EF0A2FA1DE04C2003A9FFF7EB
:103B500029FF30B3039C20461CF0C4FA0022154B09
:103B60001CF02AFB00224FF07A531CF025FB1CF0BE
:103B70005DFD1CF0C9FA2346CDE900010E4A64211F
:103B800009481DF0D1FB08482EF0A3FA014606486B
:103B900024F04AFA4FF6FF7004B0BDE8104024F05C
:103BA00048BA0649CDE700BFAC270020842B00208F
:103BB000265C040800000440435C04086F5C0408B1
:103BC0000F2837B504460D4604D90F490F482EF08B
:103BD0005DFA09E024F0BCF8A0B1234664210C4A48
:103BE0000A4800951DF0A0FB08482EF072FA014625
:103BF000064824F019FA4FF6FF7003B0BDE83040D4
:103C000024F017BA0349E1E7D05B0408AC27002091
:103C1000025D0408CF5B04081FB50446642200213E
:103C200015482EF0CCF90F2C04D9144912482EF067
:103C30002DFA10E0204624F091F8D0B1104B642109
:103C40009A780D4802925A7801921B780D4A009397
:103C500023461DF069FB08482EF03BFA0146064852
:103C600024F0E2F94FF6FF7004B0BDE8104024F0F4
:103C7000E0B90549DAE700BFAC270020D05B0408B3
:103C8000F0240020215D0408CF5B040820222B4B88
:103C900030B51A70102200215A7093B03222284891
:103CA0002EF08DF91320FFF757FC264B244C1D7D79
:103CB000002D3ED0A378002B34D0E27C64211092FA
:103CC000A27C21480F92627C0E92227C0D92E27BB4
:103CD0000C92A27B0B92627B0A92227B0992E27A7F
:103CE0000892A27A0792627A0692227A0592E27983
:103CF0000492A27903926279029222790192E27887
:103D00000092124A1DF010FB0F482EF0E2F9014616
:103D10000D4824F089F94FF6FF7013B0BDE830402C
:103D200024F087B94FF6FF70013D24F082F9EDB21F
:103D3000BEE7074904482EF0A9F9E5E7222500204F
:103D4000F0240020602B0020AC2700204A5D0408EE
:103D5000CF5B04082DE9F041474B044693F82C3023
:103D60008CB08BB9454946482EF090F944482EF066
:103D7000B0F90146424824F057F94FF6FF700CB0F5
:103D8000BDE8F04124F055B92822002102A82EF008
:103D900016F920462EF09DF9C0B28DF803009DF86B
:103DA0000330012B10D99DF80320611C013A02A8B1
:103DB0002EF02EF9334902A81DF014FB022604460A
:103DC000002534B9002D4BD1FFF760FF0CB0BDE8E2
:103DD000F08120462EF07DF9C0B28DF803009DF8E9
:103DE00003300027234413F8013C0A2B01BF0022B3
:103DF0009DF803301B1903F8012C20462EF069F9B9
:103E00005FFA87F8404514D81022002120461CF0A4
:103E10007DFE05F130030DEB0305012E05F82C0C9A
:103E200023D0002017491DF0DDFA0126044635464F
:103E3000C7E714F8080024F086F901370028DCD120
:103E400011490F482EF022F90D482EF042F9014693
:103E50000B4824F0E9F84FF6FF7024F0EAF8B5E7D4
:103E60009DF80400FFF7D8FEB0E79DF805109DF817
:103E70000400FFF7A5FEA9E7842B0020CF5B040810
:103E8000AC27002074C80408975D04080368174A2B
:103E900023F47F4323F00703934213B51CD002F1B0
:103EA000807293421FD0124A934213D1114C204684
:103EB00014F0D6FC034608B100BEFDE7A022009036
:103EC0001146207814F0E4FC08B100BEFDE70122A1
:103ED000094B1A7002B010BD0F21084802B0BDE8AE
:103EE000104024F0A1B812210548F7E7A000060011
:103EF000A00001006432002055250020805E0408E7
:103F0000905E040838B5124B1B782BB91521114867
:103F1000BDE8384024F088B80F4C237813B1102145
:103F20000E48F5E70E4D0221287814F0E5FC10B19B
:103F300025210C48ECE70221287814F0F1FC10B19F
:103F40001D210948E4E70123142108482370DFE715
:103F500055250020A35E040854250020B95E0408FE
:103F600064320020CA5E0408F05E04080E5F040894
:103F70000D4B10B51B782BB915210C48BDE810402E
:103F800024F052B80A4C237813B911210948F5E7F7
:103F9000094B187814F09EFC10B11C210748EDE77E
:103FA000207015210648E9E755250020A35E040886
:103FB00054250020235F040864320020355F040884
:103FC000525F04080022014B1A807047B024002081
:103FD00010B531F00BFB054A148814B1631E01249F
:103FE000138031F0FEFA204610BD00BFB02400203F
:103FF000014610B5074CA3695A06FCD5054825F0C3
:1040000049F8A3691B06FCD5BDE81040014825F01E
:104010003BB800BF00400A5008B50422002303202B
:104020000B2106F081FC4FF40062044B4FF48050EA
:10403000C3F8D020BDE8084023F0FBBF00D00350F8
:10404000074BD3F8D0301B0508D44FF40062054B62
:104050004FF48050C3F8D02023F0EBBF704700BF6F
:1040600000C0035000D00350F8B54FF480650B4CEE
:104070000B4E0C4F05203564FFF7BAFFFF20FFF70A
:10408000B7FF013C3D6405D11821BDE8F840064862
:1040900023F0CABFC307EDD4F8BD00BFA18601005D
:1040A00000E0035000D00350685F0408F8B54FF4F7
:1040B00080644FF47A750A4E0A4F06203464FFF785
:1040C00097FF3C6405203464FFF792FFFF20FFF761
:1040D0008FFF83073C6401D4013DF3D1F8BD00BFDD
:1040E00000E0035000D0035070B54FF480660446E2
:1040F0000C4D032005F500531E64FFF779FFC4F350
:104100000740FFF775FFC4F30720FFF771FFE0B228
:10411000FFF76EFF05F58055FF20FFF769FF2E645E
:1041200070BD00BF00C0035070B54FF480660446F8
:104130000D4DFFF7BBFF05F500531E642020FFF770
:1041400057FFC4F30740FFF753FFC4F30720FFF7FF
:104150004FFF05F58055E0B2FFF74AFF2E64BDE83A
:104160007040FFF781BF00BF00C0035070B50C4620
:1041700006461546FFF79AFF4FF480620F4B022068
:104180001A64FFF735FFC6F30740FFF731FFC6F3A8
:104190000720FFF72DFFF0B2FFF72AFF2544AC42BE
:1041A00007D1BDE870404FF48062054B1A64FFF7F9
:1041B0005BBF14F8010BFFF71BFFF0E700E00350B3
:1041C00000D0035030B5012189B0672004F098FF7A
:1041D000012304220A21002006F0A6FB002304226A
:1041E00018460E2106F0A0FB0023012218460D21DF
:1041F00006F09AFB0023042218460F2106F094FBD8
:104200000121672004F07CFF4FF460220F4B104D1A
:10421000C3F858284FF45022C3F850284FF47022A6
:10422000C3F854281C2201ACC3F840280FCD0FC49A
:1042300095E80700012384E80700064801A98DF8E6
:10424000123024F0DFFE09B030BD00BF00C00350C3
:10425000845F040800400A5010B50A4C64210A4BE0
:104260000A4A20461DF060F820462DF032FF014634
:10427000204623F0D9FEBDE810404FF6FF7023F032
:10428000D8BE00BFAC270020A05F0408A95F0408C7
:104290004FF001332DE9F04F00254FF00109304A6E
:1042A00087B0CDE9023204932E4BDFF8C8A0DFF8C7
:1042B000C8B005930DF10C0802AF0023302103AE06
:1042C00002AC14F8012B16F8010B01FB02A201331A
:1042D000DBB209FA00F002F58252042B1060F0D133
:1042E00017F8013B18F8012B01FB03A309FA02F2AE
:1042F00003F501531A60012023F047FD002430210B
:1043000005AB04A8065D142011FB060613F8012B6B
:1043100056F80B00D040C00719D40A20CDE900237D
:1043200023F033FD56F80B00009A302120FA02F2F8
:1043300012F0010F019B0AD10B4B1D700B4B1C702F
:104340000B4B03EB8503185D07B0BDE8F08F01341C
:10435000042CD6D10135042DAFD10020F4E700BFE5
:1043600000010203040506075725002056250020FA
:104370002060040800C0035030C0035000B5A7B04F
:10438000FFF786FF0E4B1A78B0B192B918700D4A3C
:104390000D4B12781B788021CDE90300CDE9013265
:1043A000009206A8094A1CF0BFFF014606A823F0A8
:1043B0003BFE27B05DF804FB002AFAD01870F8E73E
:1043C000582500205625002057250020BA5F0408F4
:1043D000014610B5074CA3695A06FCD5054824F0E0
:1043E00059FEA3691B06FCD5BDE81040014824F026
:1043F0004BBE00BF00800A5030B5012189B0682053
:1044000004F07EFE104B114A114DC3F87828A2F536
:104410008032C3F8702802F50032C3F874281C22D9
:1044200001ACC3F860280FCD0FC495E80700094B15
:1044300084E8070003930123074801A98DF812308F
:1044400024F0E0FD09B030BD00C0035001000E00B3
:10445000546004088096980000800A504FF48072DF
:1044600010B50446054B000AC3F8D020FFF7B0FF93
:10447000E0B2BDE81040FFF7ABBF00BF00E0035063
:104480004FF4807210B50446054B000AC3F8D020E3
:10449000FFF79EFFE0B2BDE81040FFF799BF00BFF5
:1044A00000D0035070B501250E4C41F2707004F538
:1044B0008056C6F8D05004F5005409F0E1FD47F2EB
:1044C0003050C4F8D05009F0DBFD4EF66020C6F83D
:1044D000D05009F0D5FDBDE870404EF6602009F0DF
:1044E000CFBD00BF00C003502DE9F04F87B002AA36
:1044F00017462E4B03F11005144618685968083307
:1045000003C4AB422246F7D1002140F23F13EF2211
:10451000084623F05EFD0824DFF8A480DFF8A4A09D
:104520001E2637F8023B00934FF4A075DFF898B0D1
:1045300018E009221E491F482DF058FD50B30B22E8
:104540001D491C482DF052FD20B30021502219486E
:1045500088F800102DF033FD184BC3F85090013D42
:10456000ADB2BDB10098FFF78BFF98F80030002B7B
:10457000F5D04FF00509DBF80010CAF85090084656
:1045800001912DF0A6FD019902460A482DF02EFD5D
:104590000028CED1013EB6B2002EC5D1013C14F0A8
:1045A000FF04BDD107B0BDE8F08F00BF7060040804
:1045B00030600408592500203A60040800D00850F3
:1045C000A925002000E00850B82B002000212DE98B
:1045D000F84FEF22064640F23F13084623F0F9FC5D
:1045E000F0251E4FDFF888A04FF4A074DFF8849008
:1045F00017E009221A491B482DF0F8FC38B30B22AA
:10460000194918482DF0F2FC08B300215022154832
:1046100039702DF0D4FC154BC3F85080013CA4B286
:10462000ACB13046FFF72CFF3B78002BF6D04FF0B3
:104630000508D9F800B0CAF8508058462DF049FD59
:104640005946024607482DF0D1FC0028D1D1013D42
:10465000ADB2002DC8D1BDE8F88F00BFA92500205C
:1046600030600408592500203A60040800D0085042
:1046700000E00850B82B00202DE9F04F89B004AAC3
:1046800016462E4B03F11005144618685968083376
:1046900003C4AB422246F7D10024DFF8B480DFF830
:1046A000B4A0002536F8023B029363199BB20027A1
:1046B000DFF8A4B0019318E00922214921482DF028
:1046C00095FC70B30B2220491E482DF08FFC40B39F
:1046D000002150221B4888F800102DF070FC1B4B65
:1046E000C3F850900137F02F1BD00199B8B223F0D6
:1046F0005CFC0298FFF7C4FE98F80030002BF1D064
:104700004FF00509DBF80010CAF8509008460391F5
:104710002DF0DFFC039902460A482DF067FC0028C3
:10472000CAD10135ADB2282DBFD12834A4B2B4F519
:10473000A07FB6D109B0BDE8F08F00BF706004085B
:1047400030600408592500203A60040800D0085061
:10475000A925002000E00850B82B002070B50026E5
:104760002D4DFFF7C1FE42F2107009F089FC0020C8
:10477000FFF72CFF42F2107009F082FCFFF77CFF7C
:1047800042F2107009F07CFC0020FFF71FFF42F29C
:10479000107009F075FC25F0E6FC2B78002BE0D0BA
:1047A00005221E4B1A651E4B1C6820462DF091FCFD
:1047B000214602461B482DF019FC044650B901461B
:1047C000287000F0F1FF2146BDE8704050221548E6
:1047D0002DF0F5BB1449092212482DF007FC0146C3
:1047E00060B9104801F000F8502200210D482E70E9
:1047F0002DF0E5FB05220D4B1A65B2E70B220C49A3
:1048000008482DF0F3FB04460028EDD1014628703E
:1048100000F0BCFDD7E700BFA925002000E008504C
:10482000B82B0020592500203060040800D0085023
:104830003A60040870B5012588B00F2200210DF1FF
:1048400011002DF0BCFB0D22002168468DF81050A0
:104850002DF0B5FB29463A2004F052FC29462420CD
:1048600004F04EFC042200230A21032006F05CF829
:1048700000260323144C04A920468DF810608DF8FF
:1048800006308DF8053024F02BFB104B104AC3F88E
:10489000E0563146C3F8E42620466A4624F061FB20
:1048A0002420BDF8126004F041FC4CF25033F0407B
:1048B000B0FBF3F0236BE061E560A36943F0100304
:1048C000A36108B070BD00BF0080045000C0035059
:1048D00003000A006421054AD3694343B3FBF1F3A3
:1048E000116B1367024B1870704700BF00800450B3
:1048F0006532002008B523F08FFAFFF77DFDFFF742
:10490000D1FD23F0BAFA23F0E0FAFFF793FF034B4F
:104910001878BDE80840FFF7DDBF00BF6532002012
:10492000B1F5807F28BF4FF4807138B50C460D4D2E
:104930000A46014628462DF0BFFB0B4BA4B21C8053
:1049400000230A4A0A4C1380138820469BB2591C44
:1049500089B21180E95C24F00EFA022304F5805438
:10496000236538BDAB250020B2240020B4240020EC
:1049700000C0085030B589B06C4601213A2004F0DF
:10498000BFFB0121572004F0BBFB174D012304227C
:104990000F21022005F0C8FF002301220E21022072
:1049A00005F0C2FF0FCD0FC495E80F0084E80F009B
:1049B0000E4C6946204624F0E3F90D4B0D4A1620B3
:1049C000C3F8CC24A2F58032C3F8C4241422C3F85F
:1049D000B42408F017FC172008F014FC042304F595
:1049E0008054236509B030BD4461040800C00850FC
:1049F00000C0035002000F001E4808B5C36C5B07DF
:104A000009D524F0A4F923281B4B05D101211B4A09
:104A100011700422DA6408BD242802D10021174A4B
:104A2000F6E70D28164B01D00A280FD100201A688E
:104A3000144988541A682AB10121134A117019685F
:104A4000124A116000221A600B4BE2E7082804D1D9
:104A50001A6812B11A68013AF5E71A684E2AF3D8B3
:104A6000064A1278002AEFD01A68511C1960054BCB
:104A70009854E9E700C0085000E00850AA2500203B
:104A8000E00D002059250020A9250020DC0D002084
:104A90001148124AC36C10B413F0020FD364104CC7
:104AA000104B10D01988228889B292B291420AD252
:104AB0001A885DF8044B92B2511C89B219800A4BD6
:104AC000995C24F058B900221A8022800222034BFC
:104AD0005DF8044B1A65704700C0085000E00850AC
:104AE000B2240020B4240020AB250020074808B5DC
:104AF000C36C5B0708D524F02AF90146044824F06A
:104B00003AF90422034BDA6408BD00BF00000950E3
:104B100000C00850002009500422054B182003F55E
:104B2000005103F58053CA641A6508F06BBB00BFDF
:104B30000000095008B5182008F052FB0422014B70
:104B40001A6508BD0020095030B589B06C460121B6
:104B50003A2004F0D5FA0121652004F0D1FA194D6C
:104B6000012304220A21022005F0DEFE0023012297
:104B70000B21022005F0D8FE0FCD0FC495E80F00E1
:104B800084E80F004FF416530F4C694620460293F9
:104B900024F0F6F80D4B0E4A1820C3F8EC2402F569
:104BA0008032C3F8E4241422C3F8D42408F02AFB8A
:104BB000192008F027FB042304F58054236509B06D
:104BC00030BD00BF446104080000095000C003501C
:104BD00002000A002DE9F8430123224F224923480D
:104BE000BB712DF053FA21482DF073FA01461F488E
:104BF00023F01AFA4FF6FF7023F01BFA1C4DDFF872
:104C00008080DFF88090FFF7B9FB25F0ACFA2B78B5
:104C1000002BF8D006260A2249461648C8F85060EC
:104C20002DF0E4F90446A0B950220146287011483D
:104C30002DF0C5F910490D48BC712DF027FA0B482D
:104C4000142123F0F1F9BDE8F8434FF6FF7023F08B
:104C5000F0B900215022074829702DF0B0F9074B18
:104C60001E65D0E7BC2B002080600408AC27002024
:104C7000A925002059250020AD60040800D0085067
:104C800000E00850A26004080222014B5A617047FC
:104C900000E000501FB50C214FF4F06004F0B4FEAA
:104CA00001213D2004F02CFA01213C2004F028FAD7
:104CB0000F4A01AB07CA83E8070040F20112184609
:104CC000ADF80C2003F07CFE03F0DAFE42F2107126
:104CD000002003F0C9FE0222064B1E209A6108F054
:104CE00091FA012003F098FE05B05DF804FB00BFC7
:104CF0006461040800D0005038B506F0FFF904469E
:104D000024F0E1F814F004044BD0284928482DF091
:104D1000BDF927482DF0DDF9264C0146244823F043
:104D200083F94FF6FF7023F084F92368224D013395
:104D300023606368214A2B60236864211C481CF0AF
:104D4000F3FA1B482DF0C5F90146194823F06CF918
:104D50004FF6FF7023F06DF903F092FE18491448E6
:104D60002DF094F912482DF0B4F90146104823F0C3
:104D70005BF94FF6FF7023F05CF964212B68114A50
:104D80000B481CF0D1FA0A482DF0A3F90146084857
:104D900023F04AF94FF6FF7023F04BF900236360CC
:104DA00038BD044B1C605C60FAE700BFC2600408B9
:104DB000AC27002000400850D40D0020DE6004081D
:104DC000006104081A61040807B525F0BFF9FFF770
:104DD000D1FDFFF7B9FE22F0E8FFFFF71DF922F041
:104DE000C3FFFFF7EFF823F02FF901230A2118463C
:104DF000042205F099FD01F05DFD4FF48062214B26
:104E0000214C1A6700F058F8FFF744FF002368466A
:104E100000938DF8043005F0D9F902221B4B1E20B7
:104E20009A6108F0EFF9012003F0F6FDFFF764FF47
:104E3000174D184E25F097F922F097FF237893B17C
:104E400005232B653168144889B200F025FF5022F4
:104E5000002111482DF0B3F80023104A237013608D
:104E600006220F4B1A650F4B1A79002AE2D0002256
:104E700012210D481A71FFF753FD4FF6FF7023F012
:104E8000D8F8D6E700E00350A925002000D0005054
:104E900000E00850DC0D002059250020E00D002026
:104EA00000D00850D40D0020316104080122014BCC
:104EB0001A717047D40D002070B5154E8EB00121C7
:104EC0002A2004F01DF9304605F07CFD0022114B2C
:104ED0003046196ACDE90122039205F0F3FD0E4D2B
:104EE00004AC8DF809000FCD0FC40FCD0FC495E8A9
:104EF000030003238DF8143040F6E44384E80300F4
:104F000004AA304601A9079305F032FE0EB070BD29
:104F100000400059BC2B002008680408002330B56D
:104F20001446012287B0CDE90233ADF806301D4B9F
:104F30008DF80A201B788DF805008DF8041063B1F8
:104F4000194BD3F8202342F00102C3F82023D3F8F1
:104F5000202342F48032C3F82023144D01AA2846AE
:104F600002A923F054FF0123EB606B6903F4A073E3
:104F7000B3F5807FF9D104A80C4923F07BFF012C05
:104F800040F6E443049806D1584348BF00F2FF704E
:104F9000C01207B030BD584340F6FF7390FBF3F0EA
:104FA000F7E700BFAB26002000C0035000400059C7
:104FB00038B501250B4C0C4B0C4920465D702DF08B
:104FC00065F820462DF085F80146204623F02CF8A0
:104FD0004FF6FF7023F02DF82946BDE838400B202E
:104FE00000F01ABEAC270020BC2B00207061040822
:104FF00038B500250B4C0C4B0C4920465D702DF04C
:1050000045F820462DF065F80146204623F00CF8BF
:105010004FF6FF7023F00DF82946BDE838400B200D
:1050200000F0FABDAC270020BC2B00208A610408E8
:1050300038B501250B4C0C4B0C4920469D702DF0CA
:1050400025F820462DF045F80146204622F0ECFFD9
:105050004FF6FF7022F0EDFF2946BDE838400720EB
:1050600000F0DABDAC270020BC2B0020A5610408AD
:1050700038B500250B4C0C4B0C4920469D702DF08B
:1050800005F820462DF025F80146204622F0CCFFF9
:105090004FF6FF7022F0CDFF2946BDE838400720CB
:1050A00000F0BABDAC270020BC2B0020C261040870
:1050B00038B501250B4C0C4B0C4920465D712CF08A
:1050C000E5FF20462DF005F80146204622F0ACFF12
:1050D0004FF6FF7022F0ADFF2946BDE838400A20A8
:1050E00000F09ABDAC270020BC2B0020E061040832
:1050F00038B500250B4C0C4B0C4920465D712CF04B
:10510000C5FF20462CF0E5FF0146204622F08CFF2B
:105110004FF6FF7022F08DFF2946BDE838400A2087
:1051200000F07ABDAC270020BC2B0020FF610408F2
:105130000122024B9A71FFF74DBD00BFBC2B00202E
:10514000002210B5074C084B084920469A712CF0F4
:105150009DFF20462CF0BDFF01462046BDE81040D3
:1051600022F062BFAC270020BC2B0020AD600408F9
:1051700001220B4B10B5DA7100220A4B0A4C1A803F
:10518000FFF7CAFC094920462CF080FF20462CF08E
:10519000A0FF01462046BDE8104022F045BF00BFF9
:1051A000BC2B0020B6240020AC2700201F6204087E
:1051B000002210B5084B094CDA71FFF7BBFC084917
:1051C00020462CF063FF20462CF083FF014620464A
:1051D000BDE8104022F028BFBC2B0020AC270020E7
:1051E0002A62040810B5174A0930044623780130B2
:1051F000D35C1B07F9D40322204613492CF0F6FE9A
:1052000098B90122114B12499A8212482CF03EFFA4
:1052100010482CF05EFF01460E4822F005FFBDE865
:1052200010404FF6FF7022F004BF032220460A49C7
:105230002CF0DCFE18B9054B08499882E5E70849CF
:10524000E3E700BFC1C40408F0C80408BC2B002079
:1052500036620408AC270020566204085A6204082B
:105260007A62040810B50B4C0B4920462CF00EFF57
:1052700020462CF02EFF0146204622F0D5FE4FF6A8
:10528000FF7022F0D6FEBDE8104001210C2000F096
:10529000C3BC00BFAC270020A862040810B50B4CAB
:1052A0000B4920462CF0F2FE20462CF012FF01465E
:1052B000204622F0B9FE4FF6FF7022F0BAFEBDE89C
:1052C000104000210C2000F0A7BC00BFAC2700203C
:1052D000C662040810B50B4C0B4920462CF0D6FED4
:1052E00020462CF0F6FE0146204622F09DFE4FF6A9
:1052F000FF7022F09EFEBDE810400121092000F061
:105300008BBC00BFAC270020E562040810B50B4C35
:105310000B4920462CF0BAFE20462CF0DAFE01465E
:10532000204622F081FE4FF6FF7022F082FEBDE89B
:1053300010400021092000F06FBC00BFAC27002006
:105340000463040810B50E4C0E4920462CF09EFE56
:1053500020462CF0BEFE0146204622F065FE4FF6A8
:10536000FF7022F066FE0122074B83F82420FFF72E
:10537000C1FABDE810404FF6FF70FFF727B900BF34
:10538000AC27002022630408BC2B0020002008B5B5
:105390001D4B18701D4BD3F8D0309B0501D5FFF77E
:1053A00015F94FF400721A4B0F21C3F8D0204FF4B7
:1053B0008072C3F8D020002301201A4605F0B4FA09
:1053C00000230E211A46012005F0AEFA00230D211C
:1053D0001A46012005F0A8FA0E490F482CF056FE97
:1053E0000D482CF076FE01460B4822F01DFE4FF6CC
:1053F000FF7022F01EFE0021084B082083F82410C5
:10540000BDE8084000F008BCA925002000C00350FA
:1054100000E0035044630408AC270020BC2B0020AC
:10542000F7B501230446414E86F82630FFF744FDC8
:1054300020463F490DF107021BF0AAFF012803D1C6
:105440009DF80730052B13D93A493B482CF01EFE36
:1054500039482CF03EFE0146374822F0E5FD4FF674
:10546000FF7022F0E6FD002386F8263003B0F0BD81
:10547000042BB57E314A2ED0052B41D00024023BAF
:10548000012B274614701FD9E3B29D4207D897FB22
:10549000F5F32B4A642128481BF046FFD8E7012288
:1054A00041214020FFF73AFD0744322022F0C1FDA0
:1054B0000134E9E7012251215020FFF72FFD074475
:1054C000322022F0B6FD0134E3B29D42F2D897FBC0
:1054D000F5F31C4ADEE7002427461070E3B29D4234
:1054E00003D897FBF5F3184AD4E700220121842062
:1054F000FFF714FD0744322022F09BFD0134EDE755
:10550000002427461070E3B29D4203D897FBF5F3C1
:105510000E4ABFE7002201218620FFF7FFFC074467
:10552000322022F086FD0134EDE700BFBC2B0020C5
:105530006763040873630408AC270020AB260020CF
:1055400099630408D1630408096404082A64040800
:10555000072938B504460D4604D9072219492CF00D
:1055600045FD60B1184919482CF090FD17482CF002
:10557000B0FDBDE838400146144822F055BDE3793E
:10558000303B052B05D96421114A10481BF0CCFE95
:10559000ECE764210F4A0D481BF0C6FE0B482CF0C7
:1055A00098FD0146094822F03FFD0B4B29469B8A96
:1055B00020461BB9BDE83840FFF732BFBDE8384090
:1055C000FCF7E2BE8E5C040847640408AC270020A8
:1055D0006564040881640408BC2B00202DE9F04FA9
:1055E0000125394B394AB3F81E9083F827501B6ABE
:1055F0000446B2FBF3F387B00393FFF75DFC032C83
:1056000043D8AC424FF000002A468BBF51214121C4
:105610004FF0500B4FF0400B00266FF0004837461C
:10562000B2462B4D28702B4D4E4539D33846514646
:105630001AF094FD064648460F461AF043FD02460E
:105640000B46304639461AF0E1FE41EC100B1DF0D6
:10565000AFF851EC100B1AF0C1FFA5EB080523467B
:105660001D4A6421019000951C481BF05DFE1B48FB
:105670002CF02FFD0146194822F0D6FC0022124BD7
:1056800083F8272007B0BDE8F08F042C28464FF0A0
:105690000002294614BF4FF0860B4FF0840BBBE786
:1056A0005846CDE90412FFF739FC8045A8BF804673
:1056B0008542B8BF0546C0FB007A039822F0B9FCCA
:1056C000DDE904120136AFE7BC2B002040420F0099
:1056D000AB26002001000080A2640408AC27002053
:1056E000072910B5044604D907221A492CF07EFC7C
:1056F00060B1194919482CF0C9FC18482CF0E9FC94
:10570000BDE810400146154822F08EBCE479303CDB
:10571000052C234605D96421114A10481BF004FECC
:10572000EBE764210F4A0D481BF0FEFD0B482CF0FF
:10573000D0FC0146094822F077FC0B4BE0B29B8A73
:105740001BB9BDE81040FFF749BFBDE81040FCF7AA
:10575000BBBE00BFD064040847640408AC27002027
:10576000D86404080D650408BC2B0020012210B584
:105770000A4C0B4B0B492046DA702CF087FC204674
:105780002CF0A7FC0146204622F04EFC4FF6FF709D
:1057900022F04FFCBDE81040FEF7E0BFAC27002030
:1057A000BC2B00202E650408002210B50B4C0C4BBE
:1057B0000C492046DA702CF069FC20462CF089FC5C
:1057C0000146204622F030FC4FF6FF7022F031FCFB
:1057D000BDE810404FF6FF70FEF7F8BEAC27002082
:1057E000BC2B00203E65040838B509302CF041FA86
:1057F0006428A8BF642020EAE074E0B2FFF76AF8EA
:1058000001220B4D0B4B642183F8252028462346AB
:10581000094A1BF089FD28462CF05BFC014628460E
:1058200022F002FCBDE838404FF6FF7022F001BCC8
:10583000AC270020BC2B00204F65040807B5154994
:105840000DF106021BF0A4FD01280AD012491348ED
:105850002CF01CFC2C21114822F0E6FB03B05DF873
:1058600004FB42F20F71BDF806305A1E92B28A4212
:1058700005D90B4909482CF009FC2A21EBE7094A14
:105880006421D383538393830448074A1BF04CFD60
:105890000146E0E7756504088B650408AC27002025
:1058A000B8650408BC2B0020E365040870B500242B
:1058B0000D46A4B006463C22214605A8CDE9024487
:1058C00004942CF07CFB3F2D28BF3F2531462A460F
:1058D00004A82CF0F1FB05F190030DEB030505F88E
:1058E000804C04AA12F8013B53B10D2B01D00A2BB6
:1058F00013D104F190030DEB0304002304F8803C62
:105900002B4903AB02AA04A81BF042FD041E06DCCF
:105910001821284822F088FB24E00134E2E7029BAA
:10592000022B21D1012C04BF05230393039B224AA0
:10593000402114A81BF0F8FC14A82CF0CAFB014667
:1059400014A822F071FB00230399CDE900331B4A10
:105950001B48C9032FF0F4FF10B11C211948D9E7E7
:105960002FF024F824B070BD042B1ED1112116484D
:1059700022F05AFB4FF6FF7022F05BFB012C08BFB0
:1059800003234FF47A7208BF0393039B0F4C5343D6
:105990000F4A2360536003F073F80020216803F07E
:1059A00063F872B604F0D4FCDCE713210948B1E7D0
:1059B000086604081766040830660408AD4E01083E
:1059C000E40D00204F6604086C660408D40D002026
:1059D000004008507E66040870B50023044696B067
:1059E000CDE90233FEF7EEFBFEF72AFB20462E49F7
:1059F00003AB02AA1BF0CCFC022804464FD1029B49
:105A0000BDF80820FF2BD9B235D801248DF810102D
:105A10000398FEF789FB05AD2246039804A9FEF71B
:105A2000A5FB22462946039822F0A1F94021039BB9
:105A30001E4A06A81BF078FC1D4E013C2B5D324629
:105A4000032101A81BF070FC01A906A82CF0BFFAE5
:105A5000013CF3D2174906A82CF0B9FA06A82CF09D
:105A600038FB014606A822F0DFFA4FF6FF7022F05D
:105A7000E0FA16B070BDB3F5803F02D2ADF8102049
:105A8000C6E7B3F1807FC3F3074137BF0324042483
:105A9000ADF810208DF8121028BF0493B8E706491E
:105AA00006A82CF0F3FAD9E792660408A666040863
:105AB000C6660408D05B0408CB66040870B50546CA
:105AC0000024A2B0CDE90044FEF77CFBFEF7B8FA53
:105AD0006A4628461F4901AB1BF05AFC02282FD109
:105AE000009A531EFF2B2BD81B49019822F03FF937
:105AF0008021019B194A02A81BF016FC02A82CF079
:105B0000E8FA014602A822F08FFA134D144E009BCA
:105B1000A34205D80221134822F086FA22B070BDB4
:105B20003246802115F8013B02A81BF0FDFB02A8BC
:105B30002CF0CFFA014602A822F076FA0134E6E70B
:105B4000094902A82CF0A2FA02A82CF0C2FA0146D8
:105B500002A8E1E708670408AC2600201B670408D8
:105B600032670408D05B04083867040870B58EB04B
:105B70006A4621491BF00CFC01280CD01F49204823
:105B80002CF084FA1E482CF0A4FA01461C4822F09E
:105B90004BFA0EB070BD00994B1EB3F57A7F01D35E
:105BA0001849ECE74FF47A7300225943164E174810
:105BB000CDE901223162039204F084FF144D04AC5C
:105BC0008DF809000FCD0FC40FCD0FC495E8030069
:105BD00003238DF8143040F6E44384E8030004AA5C
:105BE00001A90A48079304F0C3FF6421336A094AF4
:105BF00003481BF099FBC5E775670408866704082E
:105C0000AC270020AD670408BC2B002000400059E1
:105C100008680408DD67040837B50738C0B20528EE
:105C20002CD8174A174B145C30221D5C164B0129E7
:105C300053F820304FF00100144900FA05F002FB40
:105C400004120CBF02F5825202F50152106030229C
:105C500002FB04110A6C0E48EA4002F001026421C2
:105C600000920C4A1BF060FB09482CF032FA014606
:105C7000074803B0BDE8304022F0D6B903B030BDCC
:105C8000AE680408A86804089068040800C00350BF
:105C9000AC270020306804082DE9F0410E46044688
:105CA000E8B1E1B14FF000080E4D20462A7929688D
:105CB0002CF09CF9074658B9AB684BB131462046E9
:105CC0009847324639462046BDE8F0412CF077B976
:105CD00008F10308B8F1B40F05F10C05E5D1BDE8F2
:105CE000F08100BFE42B0020F8B5802702261F4D6D
:105CF000642005F5005405F58055C4F8D070C5F84A
:105D0000A06008F033F90123C4F8A0300423C4F8DC
:105D1000A060C4F8A0300823C4F8A0301023C4F851
:105D2000A0302023C4F8A0304023C4F8A0304FF4A2
:105D30008073C4F8A070C4F8A0304FF40073C4F8A6
:105D4000A0300B4C0B492046C5F8D0702CF09EF9C2
:105D500020462CF0BEF90146204622F065F9BDE848
:105D6000F8404FF6FF7022F064B900BF00C0035046
:105D7000AC2700204F6B0408F8B5802704261F4D80
:105D8000642005F5005405F58055C4F8D070C5F8B9
:105D9000A06008F0EBF80123C4F8A0300223C4F897
:105DA000A0300823C4F8A060C4F8A0301023C4F8C1
:105DB000A0302023C4F8A0304023C4F8A0304FF412
:105DC0008073C4F8A070C4F8A0304FF40073C4F816
:105DD000A0300B4C0B492046C5F8D0702CF056F97A
:105DE00020462CF076F90146204622F01DF9BDE848
:105DF000F8404FF6FF7022F01CB900BF00C00350FE
:105E0000AC270020676B0408F8B5802708261F4DD3
:105E1000642005F5005405F58055C4F8D070C5F828
:105E2000A06008F0A3F80123C4F8A0300223C4F84E
:105E3000A0300423C4F8A0301023C4F8A060C4F834
:105E4000A0302023C4F8A0304023C4F8A0304FF481
:105E50008073C4F8A070C4F8A0304FF40073C4F885
:105E6000A0300B4C0B492046C5F8D0702CF00EF931
:105E700020462CF02EF90146204622F0D5F8BDE848
:105E8000F8404FF6FF7022F0D4B800BF00C00350B6
:105E9000AC2700207F6B0408F8B5802710261F4D23
:105EA000642005F5005405F58055C4F8D070C5F898
:105EB000A06008F05BF80123C4F8A0300223C4F806
:105EC000A0300423C4F8A0300823C4F8A030202355
:105ED000C4F8A060C4F8A0304023C4F8A0304FF448
:105EE0008073C4F8A070C4F8A0304FF40073C4F8F5
:105EF000A0300B4C0B492046C5F8D0702CF0C6F8EA
:105F000020462CF0E6F80146204622F08DF8BDE848
:105F1000F8404FF6FF7022F08CB800BF00C003506D
:105F2000AC270020976B0408F8B5802720261F4D6A
:105F3000642005F5005405F58055C4F8D070C5F807
:105F4000A06008F013F80123C4F8A0300223C4F8BD
:105F5000A0300423C4F8A0300823C4F8A0301023D4
:105F6000C4F8A0304023C4F8A060C4F8A0304FF4B7
:105F70008073C4F8A070C4F8A0304FF40073C4F864
:105F8000A0300B4C0B492046C5F8D0702CF07EF8A1
:105F900020462CF09EF80146204622F045F8BDE848
:105FA000F8404FF6FF7022F044B800BF00C0035025
:105FB000AC270020AF6B0408F8B5802740261F4DA2
:105FC000642005F5005405F58055C4F8D070C5F877
:105FD000A06007F0CBFF0123C4F8A0300223C4F86F
:105FE000A0300423C4F8A0300823C4F8A030102344
:105FF000C4F8A0302023C4F8A0304FF48073C4F854
:10600000A060C4F8A070C4F8A0304FF40073C4F8C6
:10601000A0300B4C0B492046C5F8D0702CF036F858
:1060200020462CF056F80146204621F0FDFFBDE841
:10603000F8404FF6FF7021F0FCBF00BF00C00350D6
:10604000AC270020C86B040870B580261F4D642063
:1060500005F5005405F58055C4F8D060C5F8A0607A
:1060600007F084FF0123C4F8A0300223C4F8A03055
:106070000423C4F8A0300823C4F8A0301023C4F8C7
:10608000A0302023C4F8A0304023C4F8A0304FF43F
:106090008073C4F8A060C4F8A0304FF40073C4F853
:1060A000A0300B4C0B492046C5F8D0602BF0EEFF1A
:1060B00020462CF00EF80146204621F0B5FFBDE841
:1060C00070404FF6FF7021F0B4BF00BF00C0035016
:1060D000AC270020E26B0408F8B580274FF48076E7
:1060E0001E4D642005F5005405F58055C4F8D070A8
:1060F000C5F8A06007F03AFF0123C4F8A0300223DE
:10610000C4F8A0300423C4F8A0300823C4F8A03099
:106110001023C4F8A0302023C4F8A0304023C4F8D2
:10612000A0304FF40073C4F8A070C4F8A060C4F8A5
:10613000A0300B4C0B492046C5F8D0702BF0A6FFC1
:1061400020462BF0C6FF0146204621F06DFFBDE83A
:10615000F8404FF6FF7021F06CBF00BF00C0035045
:10616000AC270020FC6B0408F8B580264FF40077BC
:106170001E4D642005F5005405F58055C4F8D06027
:10618000C5F8A07007F0F2FE0123C4F8A030022386
:10619000C4F8A0300423C4F8A0300823C4F8A03009
:1061A0001023C4F8A0302023C4F8A0304023C4F842
:1061B000A0304FF48073C4F8A060C4F8A030C4F8D5
:1061C000A0700B4C0B492046C5F8D0602BF05EFF49
:1061D00020462BF07EFF0146204621F025FFBDE83A
:1061E000F8404FF6FF7021F024BF00BF00C00350FD
:1061F000AC270020166C04082DE9F84F80220125F9
:106200004FF0040B4FF0080A4FF010094FF0200830
:1062100040274FF48076244C062004F5005304F503
:106220008054C3F8D020C4F8A050C4F8A0B0C4F87B
:10623000A0A0C4F8A090C4F8A080C4F8A070C4F8CE
:10624000A020C4F8A060C4F8A05007F08FFE02217F
:10625000164B8022C3F8A050C3F8A0104FF4007171
:10626000C3F8A0B0C3F8A0A0C3F8A090C3F8A08062
:10627000C3F8A070C3F8A020C3F8A060C3F8A010B2
:10628000C4F8D0200A4C0B4920462BF0FFFE2046D4
:106290002BF01FFF0146204621F0C6FEBDE8F84F57
:1062A0004FF6FF7021F0C5BE00C0035000E0035060
:1062B000AC2700202E6C04082DE9F84F8022012520
:1062C0004FF0020B4FF0080A4FF010094FF0200872
:1062D00040274FF48076244C062004F5005304F543
:1062E0008054C3F8D020C4F8A050C4F8A0B0C4F8BB
:1062F000A0A0C4F8A090C4F8A080C4F8A070C4F80E
:10630000A020C4F8A060C4F8A05007F02FFE04211C
:10631000164B8022C3F8A050C3F8A0B0C3F8A01059
:106320004FF40071C3F8A0A0C3F8A090C3F8A080F8
:10633000C3F8A070C3F8A020C3F8A060C3F8A010F1
:10634000C4F8D0200A4C0B4920462BF09FFE204673
:106350002BF0BFFE0146204621F066FEBDE8F84F57
:106360004FF6FF7021F065BE00C0035000E00350FF
:10637000AC270020456C04082DE9F84F8022012548
:106380004FF0020B4FF0040A4FF010094FF02008B5
:1063900040274FF48076244C062004F5005304F582
:1063A0008054C3F8D020C4F8A050C4F8A0B0C4F8FA
:1063B000A0A0C4F8A090C4F8A080C4F8A070C4F84D
:1063C000A020C4F8A060C4F8A05007F0CFFD0821B9
:1063D000164B8022C3F8A050C3F8A0B0C3F8A0A009
:1063E000C3F8A0104FF40071C3F8A090C3F8A080C8
:1063F000C3F8A070C3F8A020C3F8A060C3F8A01031
:10640000C4F8D0200A4C0B4920462BF03FFE204612
:106410002BF05FFE0146204621F006FEBDE8F84F56
:106420004FF6FF7021F005BE00C0035000E003509E
:10643000AC2700205C6C04082DE9F84F8022012570
:106440004FF0020B4FF0040A4FF008094FF02008FC
:1064500040274FF48076244C062004F5005304F5C1
:106460008054C3F8D020C4F8A050C4F8A0B0C4F839
:10647000A0A0C4F8A090C4F8A080C4F8A070C4F88C
:10648000A020C4F8A060C4F8A05007F06FFD102150
:10649000164B8022C3F8A050C3F8A0B0C3F8A0A048
:1064A000C3F8A090C3F8A0104FF40071C3F8A08007
:1064B000C3F8A070C3F8A020C3F8A060C3F8A01070
:1064C000C4F8D0200A4C0B4920462BF0DFFD2046B3
:1064D0002BF0FFFD0146204621F0A6FDBDE8F84F58
:1064E0004FF6FF7021F0A5BD00C0035000E003503F
:1064F000AC270020736C04082DE9F84F8022012599
:106500004FF0020B4FF0040A4FF008094FF010084B
:1065100040274FF48076244C062004F5005304F500
:106520008054C3F8D020C4F8A050C4F8A0B0C4F878
:10653000A0A0C4F8A090C4F8A080C4F8A070C4F8CB
:10654000A020C4F8A060C4F8A05007F00FFD2021DF
:10655000164B8022C3F8A050C3F8A0B0C3F8A0A087
:10656000C3F8A090C3F8A080C3F8A0104FF4007146
:10657000C3F8A070C3F8A020C3F8A060C3F8A010AF
:10658000C4F8D0200A4C0B4920462BF07FFD204652
:106590002BF09FFD0146204621F046FDBDE8F84F57
:1065A0004FF6FF7021F045BD00C0035000E00350DE
:1065B000AC2700208A6C04082DE9F84F80220125C1
:1065C0004FF0020B4FF0040A4FF008094FF010088B
:1065D00020274FF48076244C062004F5005304F560
:1065E0008054C3F8D020C4F8A050C4F8A0B0C4F8B8
:1065F000A0A0C4F8A090C4F8A080C4F8A070C4F80B
:10660000A020C4F8A060C4F8A05007F0AFFC40215F
:10661000164B8022C3F8A050C3F8A0B0C3F8A0A0C6
:10662000C3F8A090C3F8A080C3F8A070C3F8A0106E
:106630004FF40071C3F8A020C3F8A060C3F8A01005
:10664000C4F8D0200A4C0B4920462BF01FFD2046F1
:106650002BF03FFD0146204621F0E6FCBDE8F84F57
:106660004FF6FF7021F0E5BC00C0035000E003507E
:10667000AC270020A26C04082DE9F84F02218026E7
:106680000127042208234FF0100B4FF0200A4FF08F
:1066900040094FF48078244C062004F5005504F599
:1066A0008054C5F8D060C4F8A070C4F8A010C4F835
:1066B000A020C4F8A030C4F8A0B0C4F8A0A0C4F8CA
:1066C000A090C4F8A080C4F8A07007F04FFC04228A
:1066D00002210823C5F8A070C5F8A010C5F8A020B5
:1066E000C5F8A0304FF40073C5F8A0B0C5F8A0A05D
:1066F000C5F8A090C5F8A060C5F8A080C5F8A03086
:10670000C4F8D060094C0A4920462BF0BFFC204653
:106710002BF0DFFC0146204621F086FCBDE8F84F57
:106720004FF6FF7021F085BC00C00350AC2700205D
:10673000BB6C04082DE9F84F802201254FF0020BB5
:106740004FF0040A4FF008094FF0100820274026A8
:10675000244C062004F5005304F58054C3F8D020DF
:10676000C4F8A050C4F8A0B0C4F8A0A0C4F8A09089
:10677000C4F8A080C4F8A070C4F8A060C4F8A02039
:10678000C4F8A05007F0F2FB80224FF48071164B42
:10679000C3F8A050C3F8A0B0C3F8A0A0C3F8A0905D
:1067A000C3F8A080C3F8A070C3F8A060C3F8A0200D
:1067B000C3F8A0104FF40071C3F8A010C4F8D020A3
:1067C0000A4C0B4920462BF061FC20462BF081FC43
:1067D0000146204621F028FCBDE8F84F4FF6FF7037
:1067E00021F027BC00C0035000E00350AC2700207C
:1067F000D46C04082DE9F84F0221802601270422D9
:1068000008234FF0100B4FF0200A4FF040094FF4CF
:106810008078254C062004F5005504F58054C5F811
:10682000D060C4F8A070C4F8A010C4F8A020C4F8C8
:10683000A030C4F8A0B0C4F8A0A0C4F8A090C4F8D8
:10684000A060C4F8A080C4F8A07007F08FFB0422F9
:1068500002210823C5F8A070C5F8A010C5F8A02033
:10686000C5F8A0304FF40073C5F8A0B0C5F8A0A0DB
:10687000C5F8A090C5F8A060C5F8A080C5F8A03004
:10688000C4F8D060094C0A4920462BF0FFFB204693
:106890002BF01FFC0146204621F0C6FBBDE8F84F57
:1068A0004FF6FF7021F0C5BB00C00350AC2700209D
:1068B000ED6C04082DE9F84F80254FF0020B954C44
:1068C000642004F5005804F58054C8F8D050C4F88A
:1068D000A0B007F04BFB01234FF0040AC8F8A0302A
:1068E0004FF00809102320274026C8F8A0B0C8F8A8
:1068F000A0A0C8F8A090C8F8A0304FF48073C8F8E2
:10690000A070C8F8A060C8F8A050C8F8A0304FF434
:1069100000736420C8F8A030C4F8A0A007F026FBDC
:106920000123C8F8A0301023C8F8A0B0C8F8A0A070
:10693000C8F8A090C8F8A0304FF48073C8F8A070D1
:10694000C8F8A060C8F8A050C8F8A0304FF4007391
:106950006420C8F8A030C4F8A09007F007FB01231A
:10696000C8F8A0301023C8F8A0B0C8F8A0A0C8F894
:10697000A090C8F8A0304FF48073C8F8A070C8F891
:10698000A060C8F8A050C8F8A0304FF40073C8F851
:10699000A03010236420C4F8A03007F0E7FA0123E8
:1069A000C8F8A0301023C8F8A0B0C8F8A0A0C8F854
:1069B000A090C8F8A0304FF48073C8F8A070C8F851
:1069C000A060C8F8A050C8F8A0304FF4007364204D
:1069D000C8F8A030C4F8A07007F0C8FA0123C8F8BE
:1069E000A0301023C8F8A0B0C8F8A0A0C8F8A090A4
:1069F000C8F8A0304FF48073C8F8A070C8F8A06041
:106A0000C8F8A050C8F8A0304FF400736420C8F84C
:106A1000A030C4F8A06007F0A9FA0123C8F8A0309C
:106A20001023C8F8A0B0C8F8A0A0C8F8A090C8F873
:106A3000A0304FF48073C8F8A070C8F8A060C8F800
:106A4000A050C8F8A0304FF400736420C8F8A030FC
:106A5000C4F8A05007F08AFA0123C8F8A030102328
:106A6000C8F8A0B0C8F8A0A0C8F8A090C8F8A03096
:106A70004FF48073C8F8A070C8F8A060C8F8A050A0
:106A8000C8F8A0304FF40073C8F8A0304FF48073FA
:106A90006420C4F8A03007F069FA0123C8F8A030D8
:106AA0001023C8F8A0B0C8F8A0A0C8F8A090C8F8F3
:106AB000A0304FF48073C8F8A070C8F8A060C8F880
:106AC000A050C8F8A0304FF400736420C8F8A0307C
:106AD000C4F8A03007F04AFA0123C8F8A030102308
:106AE000C8F8A0B0C8F8A0A0C8F8A090C8F8A03016
:106AF0004FF48073C8F8A070C8F8A060C8F8A05020
:106B0000C8F8A0304FF40073C8F8A030C4F8D050D3
:106B1000BDE8F88F00C003507FB503681D4A23F419
:106B20007F4323F00703934231D105220021162031
:106B3000194B0FF04DF808B100BEFDE70DF107014C
:106B400002A811F013FF014608B100BEFDE7BDF831
:106B50000C3008225BBAADF810309DF80B301820CD
:106B60008DF81230FF238DF81330FE238DF814308A
:106B70009DF80A308DF81530BDF808305BBAADF8D5
:106B8000163004AB0FF024F808B100BEFDE707B0E3
:106B90005DF804FBA0000100046D040808B5064B75
:106BA000834208D1054B1B782BB1C8B211F0CCFE43
:106BB00008B100BEFDE708BD040E0020102800202B
:106BC00030B500250368354A23F47F4323F00703DB
:106BD00085B0934204460295ADF80C5037D002F5CB
:106BE000802293420CD0A2F18272934253D12C4B5B
:106BF0001B78002B4FD005B0BDE8304023F0BEBA63
:106C0000B0F805301B2B46D1FF2304A91A4611E921
:106C1000030021F00AFB012814BF41F2FC15204BB0
:106C20004FF01B0108BF187005F0FC0220790EF030
:106C3000E5FF08B100BEFDE71A49009023791A4A22
:106C400009681A4800F070F828B300BEFDE7B0F8F4
:106C50000530B7EE047A07EE903AF8EE677AB0F8AE
:106C6000073067EE877A013307EE103AB8EEC77A3D
:106C700067EE877AB1EE047A67EE877AFAFE677A72
:106C8000FCEEE77A17EE903AB3F57A7F38BF4FF40F
:106C90007A73044A136005B030BD00BFA00006023D
:106CA00010280020B42E00209D6B0108040E002047
:106CB00038B505462EF0A3FC00230B4A14685CB1DE
:106CC000AC4206D1A96A6BB199622EF093FC012007
:106CD00007E02346A46AF2E7002DF3D02EF08AFCE9
:106CE000204638BD1160F0E73C0E002010B5044688
:106CF000B0B12EF08FF92046FFF7DAFF10B194F80B
:106D00002C300BB9002010BD064C2368002BF9D0A5
:106D10002EF075FC2368013B23602EF06BFCF1E73D
:106D20002220F0E7400E00202DE9F04385B0054613
:106D3000914698460E469DF8307009B9002F5CD1F7
:106D40002846FFF7D3FF0446002836D185F82C00EB
:106D5000686307F027F9864233D92EF0F1F921460E
:106D6000844640F2E7304FF47A720023E6FB0C01D0
:106D700019F0ACFC4FF0FF32002319F0A7FC2B46B2
:106D8000E88611462846CDE900441D4A2EF0FCFD58
:106D9000044690B9C5E9089885F82D702E632EF049
:106DA0002EFC184A136833B31A469B6A002BFBD19A
:106DB00095620023AB622EF01DFC204605B0BDE8B5
:106DC000F08347B12B4631462846CDE900440C4AB2
:106DD0002EF01AFADCE7304603A92EF0C9F9044672
:106DE0000028EAD12B462846CDE90077044A0399CA
:106DF0002EF0A6FDCCE71560DBE72124DDE700BF20
:106E0000096E01083C0E002091F82C3013B50C4699
:106E100083B98B8ECA8E93420ED243B9CDE900332B
:106E200020460B46124A4FF0FF312EF06DFDA38E27
:106E30000133A38602B010BD52B191F82D3093B149
:106E400001230093D1E908232046096BFFF76CFF6B
:106E5000012384F82C30074B1A6801321EBF1A68D0
:106E600001321A60E6E708462EF0D4F8F0E700BFDA
:106E7000096E0108400E00202DE9F041154E3368DF
:106E800033B34FF00008144F2EF0B9FB05463C68B1
:106E900024B92846BDE8F0412EF0ACBB94F82C3064
:106EA000A3B1336884F82C8013B13368013B33609D
:106EB00094F82D3013B92046FFF7FAFE28462EF03D
:106EC00099FBD4E9083120469847DDE7A46ADFE75B
:106ED000BDE8F081400E00203C0E0020034B1B68F3
:106EE000002B14BF04200120704700BF400E00207B
:106EF000024B1868B0FA80F040097047400E00203D
:106F00000348044A0449121A921021F096B900BFAE
:106F1000B4210108742301082029002008B500F0DD
:106F20002FF8FFF7EDFF124B12498B4212D30020CE
:106F3000114B12498B4218D3FCF754FA186850F8D9
:106F40002240586840F82240013298688242F5D3C6
:106F50000C33EAE70022F8E71C6844F8220001320B
:106F60005C68A242F8D30833E4E70022F8E700BFE8
:106F7000ECCA0408F8CA0408F8CA0408F8CA0408E5
:106F80004FF48041144B154A70B59A60D3F88820AD
:106F9000134D42F47002C3F88820124A05F50054DC
:106FA00091664FF0FF3222666FF4003262660D2266
:106FB000A2660222C3F8D020BFF34F8FBFF36F8FBA
:106FC0004FF44036002006F039F90020E66006F064
:106FD00019F92E6170BD00BF00ED00E0002001082E
:106FE0000080004400900050014B1860704700BFC3
:106FF000BC2E0020054B1860054B1B6F03F00703E8
:10700000032B01D12DF01EB9704700BFC42E002004
:10701000008000504FF000639B6A03F17842B2F5A4
:10702000903F03D21968064A914203D000230370AF
:1070300083607047012202709A689B694260F7E79B
:1070400007B0CD5E4FF000639B6A10B503F1784244
:10705000B2F5903F11D21968094A91420DD1094CFD
:10706000227812F0FD0F01D0002010BDDB69984797
:107070000028FAD101232370F6E74FF48170F4E77A
:1070800007B0CD5E11280020024B034A1A6022F09F
:107090009ABF00BF0000002002020FF0BFF34F8F25
:1070A0000549064BCA6802F4E0621343CB60BFF3A4
:1070B0004F8F00BFFDE700BF00ED00E00400FA05C0
:1070C0002DE9F04104460C254FF00108124E0CB397
:1070D00014F001000BD0002024F0010405FB006235
:1070E0005768002FF3D09168C0B2B847EFE7224647
:1070F000013020284FEA520201D0D307F8D508FA10
:1071000000F20F2824EA0204E8D9103805FB0062D7
:10711000B432E5E7BDE8F081440E002008B50C4824
:1071200022F046FF272006F07BF828B1272006F042
:1071300085F8272006F066F8282006F071F828B1B7
:10714000282006F07BF8282006F05CF8002008BD17
:10715000C08204082DE9F0410E4690460546E0B194
:107160000F291CD80378032B19D84FF6FF734278E8
:10717000D340DB0713D50C4BD3F810438CB92EF05A
:107180003EFA074642462846314604F09DF8384606
:107190002EF030FA2046BDE8F0812224FAE72124BF
:1071A000F8E70224F6E700BF00C0035010B504461C
:1071B000B0B10378032B15D84FF6FF734278D34054
:1071C000DB070FD52EF01BFA0122637821789A4055
:1071D00030235943044B5A502EF00CFA002010BDB6
:1071E0002220FCE72120FAE740D0035010B50446E6
:1071F000B0B10378032B15D84FF6FF734278D34014
:10720000DB070FD52EF0FBF90122637821789A4035
:1072100030235943044B5A502EF0ECF9002010BD96
:107220002220FCE72120FAE740E0035008B504F0F3
:1072300041F8054B00F0553020F0A040C3F8200481
:10724000BDE80840FFF73CBF00E0035008B504F07C
:1072500031F8054B00F0AA3020F02040C3F820049C
:10726000BDE80840FFF72CBF00E003502DE9F04FC8
:10727000144606460D469B46C36B87B001225B69E8
:1072800002A960689847F36B01225B6903A928464D
:10729000984702A821F0EDFB074648B10023A375EB
:1072A00063754FF0FF33A360002007B0BDE8F08F97
:1072B00003A821F0EBFB0123A375237E04EBC3039A
:1072C000DD611F846368AB420ED1206003A821F00A
:1072D000FFFB4FF0FF332075A360237D043B022B9F
:1072E00026D80023A375DFE723681A1A53425341B7
:1072F000A37503A821F0ECFB237D834218BFA7757B
:1073000003A821F0C7FB074602A821F0C3FB874270
:1073100018BF002303A818BFA37521F0C3FB0746BD
:1073200002A821F0BFFB87421CBF0023A375D4E74E
:1073300003A821F0AFFB80B1F36B022228465B6902
:1073400004A9984704A821F0B4FB0346207D032834
:1073500039D8DFE800F03838040903A8F3E7CC2275
:10736000237E04EBC3031A8401F0A2FA109B187069
:1073700003A8277E21F082FB04EBC70787F82200D1
:10738000237E03A804EBC303B3F8209093F8227084
:1073900021F080FB804603A821F084FB8246B8F1EF
:1073A000000F15D0F36B022228465B6904A99847A9
:1073B00004A821F043FB6075637D6BB90023A375BE
:1073C0004FF0000838E0227E04EBC2021384CBE7C2
:1073D00003A821F01EFBEEE794F81680B8F1000F29
:1073E000EED0B9F1000F09D1DFB10123627EE37560
:1073F000002A44D19F4218D1677614E0736C05EBE4
:107400000A02594285EA020008421CBF0021A17508
:10741000591E0A409B1A9945D0D8A37D002BE3D171
:10742000CEE7E37D43B94FF000084B46524629466C
:10743000304621F05CF8A060A27D12B123694B4474
:1074400023611449237E097899421ED9013323769A
:10745000BBF1000F1BD0D2B1E37DC3B1B8F1000F77
:1074600015D1032F13D0A1684B1C10D0109B2246BE
:10747000009330460123FFF7F9FEA07507E0012FC6
:10748000DAD0032F08BFA376CDE70023A375A07D34
:107490000BE700BFA86F04082DE9F04F0E46984691
:1074A00000238BB004464FF0FF31104617468DF88D
:1074B000133001F0E7F9B6F5801F3BD3B21C53D16E
:1074C000E56A6B1C57D12046616A20F056FF0546DD
:1074D000B31C18BF0123DFF810910193636A626C3B
:1074E0000293236805A902FB053AE36B05225B6959
:1074F0005046984705A821F057FB21F07AFB5046EB
:1075000021F082FB4FF0000B824601464B1C05D058
:10751000636C81EA0A025B42134232D0294620465C
:1075200020F02BFF029BAB424DD0BBF1000F4DD1A1
:107530000546D3E7314605AA04F1080021F0E7F932
:107540000146481C10D0384601F09CF9012239460A
:1075500020460DF1130321F01CF828B19DF81330DB
:1075600088F80030002003E0237C002BA8D12D20D8
:107570000BB0BDE8F08F2368ED1A636CB5FBF3F533
:10758000A6E7484601F07EF90DF11303494620466F
:10759000019A20F0FEFF034690B1B21C03D0D9F847
:1075A0000020B2420CD19DF8132003930D4B88F8B4
:1075B000002049461A6838462AF07EFD039B9B4608
:1075C000D9F80810A2E7BBF1000FD0D0B6F5801FA4
:1075D000C8D2314698F800307A6804F1080001F00A
:1075E0007FF8BFE7A46F0408201600202DE9F341BF
:1075F0000446174698460E46194D816AE36A8B4247
:107600002AD04B1C18E0284601F03CF901222946FB
:1076100020460DF1070320F0BCFF30B14346294658
:1076200020469DF80720B847B0B1A9684A1C05D08C
:10763000012E0AD0E36A9942E5D10DE0696820463F
:1076400020F028FF012E0146D8D16B6881EA0302A1
:10765000636C5B421A42D1D002B0BDE8F08100BF3A
:10766000F41500202DE9F041036B9046826B07680A
:107670009A4288BF8363426C436A90B002FB0377EF
:10768000C36B0E46052201A95B690446384698473C
:1076900001A821F089FA01280146307057D0656CA5
:1076A000E26B2368606AD2F814C005FB0030052243
:1076B00006A9E04706A821F077FA01284FF0000557
:1076C00023D0D4E90A3201219342CDE90B458DF84C
:1076D00034800E958DF83C102AD11946204620F0B2
:1076E000D9FE236B626C14339B1AE06223630C9BFC
:1076F00053B99DF83C303BB1626A616C2368E06B22
:1077000001FB023121F008FA0C9DE36B05225B6955
:1077100001A93846984701A821F046FA307028465A
:10772000236BA26B9A4288BFA36310B0BDE8F081BF
:10773000237C33B91C490BAA04F1080001F01EF8A0
:10774000D5E72046194A0BABFFF750FFCFE7237C64
:1077500023BB2246164904F1080001F00FF8616AC4
:10776000204620F02BFE616A421C204620F0F4FDEA
:10777000054620B9236B626C1344143B23632046F7
:10778000A16A20F087FE2368A062C01A636CB0FB78
:10779000F3F06062204620F0C0FEB6E700232046EA
:1077A000044AFFF723FFDAE7797F0108F57E010835
:1077B0001B860308B785030873B50D46D11E4A42E0
:1077C0001C461B7E4A419A4226D129682368994269
:1077D00022D3636899421FD8114E0DF10703324638
:1077E000FFF75AFEC0B972686B689A4214D19DF8CF
:1077F0000730DA1E53425341227E93420CD1636913
:1078000001336361D4E90323934205D22968A26856
:1078100042F8231001332361012002B070BD00BF84
:107820004C1600202DE9F04F9A468BB09DF8503051
:10783000DFF850B10293DBF81030804653450D4617
:107840001646C0F09980D146DBF804300193B9F1B7
:10785000000F00F08D80D8F83C3001225B6907A949
:107860000198984707A821F011F9DBF800309842F9
:1078700040F0858007A821F015F90428074614D1A7
:1078800007A821F016F9019B029A04463B44002AFE
:107890003FD1864212D91446361A4046019920F04B
:1078A000F9FDA9EB04090190D1E7D8F83C30022298
:1078B0005B69019808A9984708A8E2E7841B54452A
:1078C00028BF5446032C03EB0607AAEB040A4FEA31
:1078D00094021CD9D8F83C30294638465B69984751
:1078E00024F0030304F003061F441D44002ED4D0EB
:1078F000D8F83C3001225B6908A9384698473246DF
:10790000284608A935442AF0D7FB0026C5E72646B5
:10791000ECE7074600F00302039203442A1804929E
:107920000593049BDD1B059BD81B039B9F420FD136
:10793000002FB2D0D8F83C30012208A95B699847E3
:107940003A46284608A92AF010FB78B93D44A4E736
:10795000D8F83C30012208A95B69984704222846E0
:1079600008A92AF002FB08B9043FDAE74FF036090C
:1079700048460BB0BDE8F08F4FF06309F8E74FF0D1
:107980006F09F5E7781600202DE9F0410F461646FD
:107990009846044688B060B390F83450FDB1012198
:1079A00020F0B0FC00210E9BCDE90511CDE9023796
:1079B0009DF83C30CDF804808DF81C30237C049673
:1079C0008BB90D4901AA04F1080000F0D7FEDDE9EA
:1079D0000553E06B002E08BF1D4620F02CFE284604
:1079E00008B0BDE8F0812046044A01ABFFF7FEFD78
:1079F000EDE70546F3E700BFE5850308B977010821
:107A00002DE9F04F99B00F4609920A69416C0E9327
:107A10001439D31DB3FBF1F3013302EBC302036B43
:107A200004469342C0F00D820023DFF820940D93AA
:107A3000E36A48461946079300F024FFD7E9033666
:107A400004930E9B022B4ED1CC2E40F08A81099BD1
:107A5000002B42D03946204620F04BFE656C079A39
:107A60006B1E13401490ED1AE36B01225B6916A99B
:107A70007868984716A821F00DF800280CBF042359
:107A80000823782E06933DD9012300254FF0080ADC
:107A900005933B6805990E98C9F80030C9F8106045
:107AA00021F01AF84FEA9A0310930023DDF81CB076
:107AB00089F814000B930F9308930C93616C4A1E82
:107AC0000BEA02028B1A002E38D05544AB4240D844
:107AD000236B5B1A13442363ABE0049B1B68149372
